{
  "contractName": "Counter",
  "abi": [
    {
      "constant": false,
      "inputs": [],
      "name": "IncrementCount",
      "outputs": [],
      "payable": false,
      "stateMutability": "nonpayable",
      "type": "function"
    },
    {
      "constant": false,
      "inputs": [],
      "name": "DecrementCount",
      "outputs": [],
      "payable": false,
      "stateMutability": "nonpayable",
      "type": "function"
    },
    {
      "constant": true,
      "inputs": [],
      "name": "ViewCount",
      "outputs": [
        {
          "internalType": "uint256",
          "name": "",
          "type": "uint256"
        }
      ],
      "payable": false,
      "stateMutability": "view",
      "type": "function"
    }
  ],
  "bytecode": "0x60806040526000805534801561001457600080fd5b5060cf806100236000396000f3fe6080604052348015600f57600080fd5b5060043610603c5760003560e01c806330498ce61460415780633d20db25146049578063aef92fc1146051575b600080fd5b6047606d565b005b604f607f565b005b60576091565b6040518082815260200191505060405180910390f35b60016000808282540392505081905550565b60016000808282540192505081905550565b6000805490509056fea265627a7a7231582027f8b5570b0693bf2491614012cc8f759bd68269e2360185dfdd1e4c0da9d25764736f6c63430005100032",
  "source": " // SPDX-License-Identifier: MIT\r\npragma solidity >=0.4.21 <8.10.0;\r\n\r\ncontract Counter {\r\n  uint count = 0;\r\n  \r\n  function IncrementCount() public{\r\n    count += 1;\r\n  }\r\n\r\n  function DecrementCount() public {\r\n    count -= 1;\r\n  }\r\n\r\n  function ViewCount() public view returns (uint) {\r\n    return count;\r\n  }\r\n  \r\n}\r\n",
  "sourcePath": "C:\\Users\\TRACE\\Documents\\Counter\\contracts\\Counter.sol",
  "compiler": {
    "name": "solc",
    "version": "0.5.16+commit.9c3226ce.Emscripten.clang"
  },
  "schemaVersion": "3.4.4",
  "updatedAt": "2022-02-16T23:32:17.310Z",
  "networkType": "ethereum",
  "devdoc": {
    "methods": {}
  },
  "userdoc": {
    "methods": {}
  }
}